:05078900D2A7D2A62258
:07073200D2A7120739C2A78C
:0D0739000000000000000000000000002291
:0C076800D2A7D2A6120739C2A602073998
:0C077400C2A6D2A7120739D2A60207398C
:10071300C2A7D2A6E4780AF6EF3392A6EF25E0FF4C
:0E072300120732780A06E6C3940840ECD2A60C
:0107310022A5
:1006D100E47808F67809E625E0FFF6A2A6E4334FB0
:1006E100F61207321806E6C3940840E87809E6FFD7
:0106F10022E6
:1006AF00780B7601D2A7120739780BE6FF60101886
:1006BF00E6C39405500906A2A6E43308F680EAC201
:0106CF00A783
:0106D0002207
:10075800A20092A6D2A7120739C2A7D2A6020739C9
:10066300E4F594F593F592F591F596F595F5B2F5D4
:10067300B1F5B4F5B3F5CAF5C9D2AF1207891204BF
:060683008F1205C780FB89
:1000030000000000000000000000000000000000ED
:1000130000000000000000000000000000000000DD
:1000230000000000000000000000000000000000CD
:1000330000000000000000000000C0E0F0FCFEFE35
:10004300FEFCF8E0C000000000000000000000001B
:10005300000000000000000000000000000000009D
:10006300000000000000000000000000000000008D
:10007300000000000000000000000000000000007D
:10008300000000000000000000000000000000006D
:10009300000000000000000000000000000000005D
:1000A300000000000000000000000000000000004D
:1000B3000000000080C0F0F8FEFF7F3F0F07030041
:1000C30001070F3F7FFFFEF8F0C080000000000033
:1000D300000000000000000000000000000000001D
:1000E300000000000000000000000000000000000D
:1000F30000000000000000000000000000000000FD
:1001030000000000000000000000000000000000EC
:1001130000000000000000000000000000000000DC
:10012300000000000000000000000080808080804C
:10013300E0F0FCFEFF7F1F0F03010080C0C0E0E082
:10014300C0C080000001030F1F7FFFFEFCF0E080B2
:10015300808080800000000000000000000000009C
:10016300000000000000000000000000000000008C
:10017300000000000000000000000000000000007C
:1001830080C0C0E0E0E0E0E0E0F0F0F0F0F0F0F09C
:10019300F8F8F8F8F8F8F87C7C7C7C7C7C7C3E3EB4
:1001A3003E3E3E3E3F1F1F1F1F1F1F1F0F0F0F0F00
:1001B3000F8FC7E3E0F0F8FCFE7E3F1F1F0F07071A
:1001C3000F1F1F3F7EFEFCF8F0E0E0C387070F0F11
:1001D3000F0F0F1F1F1F1F1F1F1F3F3E3E3E3E3EA1
:1001E3003E7E7C7C7C7C7C7CF8F8F8F8F8F8F8F0B0
:1001F300F0F0F0F0F0F0E0E0E0E0E0E0C0C080001C
:100203000103070707070707070F0F0F0F0F0F0F4D
:100213001F1F1F1F1F1F1F3E3E3E3E3E3E7E7C7C18
:100223007C7C7C7CF8F8F8F8F8F8F8F0F0F0F0F063
:10023300F0E3E7CF0F1F3F7FFEFCF8F0F0E0C0C014
:10024300E0F0F0F8FCFE7F3F1F1F0FC7E3E0F0F084
:10025300F0F0F0F0F8F8F8F8F8F8F87C7C7C7C7CA7
:100263007C7E3E3E3E3E3E3E1F1F1F1F1F1F1F0F35
:100273000F0F0F0F0F0F07070707070707030100EC
:10028300000000000000000000000000000000006B
:10029300000000000000000000000000000000005B
:1002A3000000000000000000000000010101010146
:1002B300070F3F7FFFFEF8F0C0800103070F0F0F0A
:1002C3000F0703010080C0F0F8FEFF7F3F0F070117
:1002D3000101010100000000000000000000000017
:1002E300000000000000000000000000000000000B
:1002F30000000000000000000000000000000000FB
:1003030000000000000000000000000000000000EA
:1003130000000000000000000000000000000000DA
:1003230000000000000000000000000000000000CA
:100333000000000001030F1F7FFFFEFCF0E08000C0
:1003430080E0F0FCFEFF7F1F0F03010000000000B0
:10035300000000000000000000000000000000009A
:10036300000000000000000000000000000000008A
:10037300000000000000000000000000000000007A
:10038300000000000000000000000000000000006A
:10039300000000000000000000000000000000005A
:1003A300000000000000000000000000000000004A
:1003B3000000000000000000000003071F3F7F7FD4
:1003C3007F3F1F0703000000000000000000000043
:1003D300000000000000000000000000000000001A
:1003E300000000000000000000000000000000000A
:1003F30000000000000000000000000000000000FA
:080780004100000041000100EE
:10068900900404EFF01207687F781207131206AF7F
:10069900E4FF1207131206AF900404E0FF120713D8
:0606A9001206AF02077407
:05050E00900402EFF073
:1005130024B0FF120689E4FF1206897F10120689B0
:100523001207687F781207131206AF7F4012071372
:100533001206AFE4900403F0900403E0FFC3948039
:10054300502C900402E075F080A42402F582E5F0BB
:100553003400F583E5822FF582E43583F583E0FFEC
:100563001207131206AF900403E004F080CA0207D7
:010573007413
:1006F2007B017A007902E4FFFEE41207460429F93D
:10070200E43AFA0FBF00010EE4B507EDEEB404E9D6
:0107120022C4
:10057400E4900402F0900402E0FFC394085043EFB7
:1005840024B0FF120689E4FF1206891207687F78F7
:100594001207131206AF7F401207131206AFE4903E
:1005A4000403F0E4FF1207131206AF900403E004FF
:1005B400F0E0C3948040EC120774900402E004F06D
:0205C40080B302
:0105C6002212
:1005C700900000E024EC601E24F6601A24F6601602
:1005D70024F6601224F6600E24F6600A24F66010F2
:1005E700244670238000900001E0FF12050E80175B
:1005F700900001E0FF12050E900001E004F0E054C6
:0D06070007F0E4900000F0900000E004F027
:0106140022C3
:0F0615001206240D0F1206240D0F1206240D0FCE
:10062400E4FE75F080EDA42403F582E5F03400F5D2
:1006340083E5822EF582E43583F583E493FC75F03B
:1006440080EFA42402F582E5F03400F583E5822EE0
:0E065400F582E43583F583ECF00EEEB480C43D
:010662002275
:10048F001206F2E4FDFF1206150D0F1206157F81FD
:10049F001206897FFF1206897FA41206897FA61292
:1004AF0006897FAF1206897F401206897FA1120647
:1004BF00897FC81206897FA81206897F3F12068995
:1004CF007FD3120689E4FF1206897FD5120689E4CD
:1004DF00FF1206897FD91206897F221206897FDBD8
:1004EF001206897F201206897F8D1206897F1412CA
:0F04FF0006897F201206897F0212068902057482
:03000000020403F4
:0C040300787FE4F6D8FD75812002044AE1
:10074600BB010689828A83F0225002F722BBFE0192
:02075600F3228C
:10040F00020663E493A3F8E493A34003F68001F29A
:10041F0008DFF48029E493A3F85407240CC8C333EE
:10042F00C4540F4420C8834004F456800146F6DFBD
:10043F00E4800B0102040810204080900780E47EC6
:10044F00019360BCA3FF543F30E509541FFEE493B2
:10045F00A360010ECF54C025E060A840B8E493A379
:10046F00FAE493A3F8E493A3C8C582C8CAC583CAA4
:10047F00F0A3C8C582C8CAC583CADFE9DEE780BE5C
:010788000070
:00000001FF
